S01D00004652454552544F535F53414D5F4558414D504C45312E73726563C1
S214400000482C4020010A4000FD094000FD09400000
S214400010FD094000FD094000FD09400000000000C9
S214400020000000000000000000000000BD0D400081
S214400030FD09400000000000590E4000C10E40007F
S214400040FD094000FD094000FD094000FD09400053
S214400050FD094000FD094000FD094000FD09400043
S214400060FD094000000000003507400045074000FD
S21440007055074000FD094000FD094000FD094000CD
S2144000806507400075074000FD094000FD09400037
S214400090FD094000FD094000FD094000FD09400003
S2144000A0FD094000FD094000FD094000FD094000F3
S2144000B0FD094000FD094000FD094000FD094000E3
S2144000C0FD094000FD094000FD094000FD094000D3
S2144000D000000000FD09400000000000FD0940004F
S2144000E0FD094000FD094000FD094000FD094000B3
S2144000F0FD094000FD094000FD094000FD094000A3
S214400100FD094000FD094000FD094000FD09400092
S214400110FD09400000000000000000000000000054
S214400120FD094000FD094000FD094000FD09400072
S214400130FD09400000000000FD094000FD094000A8
S21440014010B5054C237833B9044B13B10448AFF3CC
S21440015000800123237010BDB80940200000000035
S2144001601C6140000C4B43B10C480D4910B5AFF331
S21440017000800C48036823B910BD0A48036833B9A9
S2144001807047094B002BF7D0BDE810401847064B88
S214400190002BF5D0184700BF000000001C6140004F
S2144001A0BC0940201C6140000000000070B51048AB
S2144001B0104DA8473E2100200F4B104C9847A047B3
S2144001C00028FCD00E4B98470E4C0F4B0F4A9A62B5
S2144001D0A0470028FCD002200D4B98470D4B00202E
S2144001E098470D4B98472B460148BDE87040184746
S2144001F000A3E111A50B4000090840005D0840003F
S2144002006D0840007D08400000060E40013F182063
S21440021085074000B5074000C10A40002DE9F0417F
S21440022090B9002A90460DDD0C468F18084E094DB1
S2144002302146013430682B689847BC42F8D1404686
S214400240BDE8F0818046FAE74FF0FF38F7E700BF99
S214400250CC0B4020C40B4020013802281ED82DE984
S214400260F0411546BAB10E460C46DFF83C800D4FBD
S21440027001E0013D0DD014F8011BD8F800003B68A2
S21440028098470028A4EB0600F3DA4FF0FF30BDE8AD
S214400290F081BDE8F0811046BDE8F0814FF0FF30B8
S2144002A0704700BFC80B4020CC0B4020F8B54FF439
S2144002B000425A4B5A60BFF34F8FBFF36F8F584C74
S2144002C00023C4F85032636943F400336361BFF3DC
S2144002D04F8FBFF36F8FD4F8803003F00706C3F319
S2144002E04E3EC3F3C90C0436BCFA8CF303F01F032E
S2144002F0BFF34F8F4FF0FF350EFA06F00CFA03F7B8
S21440030005FA06F69D403A46634640EA0201013B3E
S2144003102A44C4F86012591CF7D10EF1FF3E30440F
S214400320BEF1FF3FEFD1BFF34F8F636943F4803395
S2144003306361BFF34F8FBFF36F8F3A4B3A493B4AE7
S21440034059605A60BFF34F8FBFF36F8FD4F8903227
S21440035023F00103C4F89032D4F8943223F001031A
S214400360C4F89432BFF34F8FBFF36F8F304C0A20E0
S214400370A0470B20A0470C20A0471020A0471120E4
S214400380A0474FF480752B4A4FF400632A494FF438
S21440039000142A4E10200D61A1F50071C1F8A0523C
S2144003A0C1F830525361C2F8A0305366C2F890305C
S2144003B053651362C2F88430156F25F400651567DF
S2144003C0556F25F400655567C2F8C030C2F8D43082
S2144003D0C2F8B0301466C2F8904054655462C2F811
S2144003E08040136F23F400131367536F23F40013F6
S2144003F053675460D6F814310343C6F81431086680
S214400400C1F8900048654862C1F880000B6F03430E
S2144004100B674B6F03434B674860F8BD50180E4060
S21440042000ED00E0000C0E400C08005A0C07005A85
S2144004308D084000000E0E4000120E40008008401E
S2144004400AB9016670474166704700BF016370474E
S21440045041637047B1F1C05F426434D010D8B1F107
S214400460006F1CD0B1F1805F2AD1036F134303673E
S214400470436F416F0B4023EA020343674260704775
S214400480B1F1205F1BD029D8B1F1005FF6D1036FE0
S21440049013430367436F1343436742607047016FDC
S2144004A0D34310B4046F21401C4619400167436F84
S2144004B0416F0B4023405DF8044B436742607047F2
S2144004C00029DBD17047036F016F0B4023EA02031C
S2144004D00367436F1343436742607047B1F1405F21
S2144004E0EDD0B1F1605FEAD0C8E700BFD307416402
S2144004F015D5416612F00A0F09D09307016209D458
S214400500130701D5C0F88410416101607047930716
S2144005104162F5D5C0F880104161016070470166C0
S214400520E8E700BF10B4019C416494B141663BB11A
S214400530016542B941635DF8044B01610160704753
S2144005404165002AF6D001635DF8044B0161016005
S21440055070470166EBE700BFB1F1005F70B537D07A
S2144005602DD9B1F1405F19D0B1F1605F16D0B1F12D
S214400570205F02D00023184670BDDD07426436D4A3
S21440058013F00A0F026636D09C07026236D5C0F8D2
S2144005908020012342610260184670BD03F00404C7
S2144005A0DB0742641ED54266FCB10265B1F1605F6E
S2144005B02DD04263012302610260184670BDB1F13E
S2144005C0805F05D0B1F1C05F02D0B1F1006FD1D1EC
S2144005D01E46104B04469847F60714D5012362661C
S2144005E0184670BD0266002CDFD14265DEE713F088
S2144005F00A0F4266C8D19C074262C8D41907C8D5BC
S214400600C0F88420C5E701232266184670BD026301
S214400610D0E700BF55044000836B0B4214BF012057
S2144006200020704701647047C06C7047806C70470C
S214400630D3060AD59306C0F8B01009D45306C0F8BE
S214400640D01009D5C0F8C0107047C0F8B410704735
S2144006505306C0F8D410F5D4C0F8C410704700BF95
S214400660004B184731064000F8B504460F4B0F467E
S214400670984706460E4B20469847064015D00D4CE8
S214400680002504E0072D04F110040ED06EB1236857
S2144006900135BB42F6D161683142F3D0E368384653
S2144006A09847636826EA0306ECE7F8BD290640004B
S2144006B02D064000D40940202DE9F047DFF8709021
S2144006C0D9F800C0BCF1060F2BD84FF00008164EE4
S2144006D0444602E0A445A0460CD3250104F1010E91
S2144006E0A24677595FFA8EF435448F42F2D16D6850
S2144006F09542EFD14FEA0A1A0CF1010C06EB0A04B8
S21440070046F80A100899C4456260A360E160114645
S2144007101A46064B08BFC9F8008098470020BDE837
S214400720F0870120BDE8F087D409402061064000EC
S214400730440A40200A210148014B1847000E0E404B
S214400740690640000B210148014B184700100E4037
S214400750690640000C210148014B184700120E4024
S2144007606906400010210148014B184700140E400E
S2144007706906400011210148014B184700160E40FB
S21440078069064000023802280DD8084B53F820006E
S21440079007490B6B0A4623F4407303430B63936E7F
S2144007A01B07FCD570470020F2E700BF585E4000AC
S2144007B000060E4013490B6B23F070031843086382
S2144007C08B6E180707D44FF4805301E0013B16D0D8
S2144007D08A6E1207FAD50B490B6B23F0030343F0DE
S2144007E002030B638B6E180707D44FF4805301E067
S2144007F0013B04D08A6E1207FAD5002070470120CC
S214400800704700BF00060E40A0B90E4B09020E48C6
S21440081089B21A4630B40D4C1D6A2C402043014321
S2144008201962936EDB07FCD5116A094B0B431362C2
S21440083030BC70470349074A086A074B02401343D7
S2144008400B62704700060E4001003700FCFFC8FFF1
S21440085000003701FCFFC8FE02003701024B986ECD
S21440086000F48030704700BF00060E40024B4FF049
S21440087000529A62704700BF00060E40024B986EC8
S21440088000F00200704700BF00060E403F281AD80E
S2144008901F280AD801230E4A03FA00F0916930EA6D
S2144008A0010312D010610020704701232038084A07
S2144008B003FA00F0D2F8083130EA030305D0C2F854
S2144008C0000100207047012070470020704700BF9D
S2144008D000060E4043699B0702D5C1610020704761
S2144008E0012070474369DB0703D5836900200B70FE
S2144008F070470120704700BF0B01934210B414D8D4
S21440090059084FF6FE7401EBC202B2FBF3F2D3086D
S214400910591EA14215D81204002102F4E0221A43BF
S214400920026208465DF8044B7047C9004FF6FE74F5
S2144009304B0803EBC202B2FBF1F2D308591EA142A8
S21440094004D901215DF8044B08467047416841F4DC
S21440095000214160DFE700BFF8B50024144D4FF496
S21440096080764FF0880E2427C0F8E45044604FF459
S214400970002544628462C0F800E0076006600D4EC1
S2144009800560346089B10D460B4B096804469847AC
S21440099058B96A68AB682F691343E96862683B4395
S2144009A00B431A4333606260F8BD0120F8BD00BFB8
S2144009B000415355480A4020F90840004023036050
S2144009C0704700BF10230360704700BF426903466C
S2144009D0920704D5C1F308010020D9617047012071
S2144009E0704700BF4369DB0705D583690020C3F322
S2144009F008030B6070470120704700BFFEE700BF4A
S214400A002449254A914200B583B00ED023488242FD
S214400A100BD2D343034423F003030433134451F867
S214400A20040B42F8040B9A42F9D11D4A1D498A42EA
S214400A300AD2D34300200B4423F003030433134469
S214400A4042F8040B9A42FBD1174B184A23F07F0317
S214400A509360EFF31083B3FA83F35B09019372B6A6
S214400A60BFF35F8F124A00231249137001980B6838
S214400A7043F470030B60BFF34F8FBFF36F8F20B10B
S214400A8001231370BFF35F8F62B60B4B98470B4B37
S214400A909847FEE71C61400000004020B80940200F
S214400AA0B8094020480C40200000400000ED00E01F
S214400AB00000402088ED00E0A92E4000092D4000AF
S214400AC0314A136B03F00303012B3DD026D3022B90
S214400AD00DD02E490B682C48026B02F07002702A2B
S214400AE02CD0026BC2F30212D3400B607047136ADD
S214400AF02649DB0138D5264B0B602348026B02F0B3
S214400B000302022AE7D1826A806AC2F30A42C0B26E
S214400B1002FB0333B3FBF0F30B60DCE71D4B1B49D2
S214400B205B6919481B064CBF4FF400434FF4FA4329
S214400B300B60026B02F07002702AD2D1164AA2FBFA
S214400B4003235B080B607047136A1049D80108D42A
S214400B50124B0B60126A02F07002102A11D0202A43
S214400B60B9D10B4B0B60B6E70C4B0B60126A02F028
S214400B707002102A02D0202ABDD0BEE7084B0B6078
S214400B80BBE7074B0B60A6E700060E40040040207C
S214400B90001BB70010180E40ABAAAAAA00093D00D9
S214400BA000127A00164B984217D9164B984210D925
S214400BB0154B98421AD9154B984213D9144B984264
S214400BC018D9144B9842144B94BF144A144A1A60CE
S214400BD07047114B134A1A6070470F4B4FF08062B4
S214400BE01A6070470C4B104A1A6070470A4B0F4AFF
S214400BF01A607047084B4FF004221A60704700BFD7
S214400C00BFF35E017FE7BD023FDB1C04FFCE7B05E2
S214400C10BFC2DA067FB63908000C0E400005000455
S214400C200006000400010004000300040002000463
S214400C300D4A0E49136843B11844814202DB1060E6
S214400C40184670474FF0FF30704710B4084C2044A9
S214400C501460814204DB106020465DF8044B704708
S214400C604FF0FF30F9E700BF4C0A4020FCFF45201C
S214400C70482E40204FF0FF30704700BF4FF40053DF
S214400C8000204B60704700BF01207047002070472F
S214400C9000F108034FF0FF3100228160C36003611A
S214400CA080E80C00704700BF00230361704700BF18
S214400CB043684B609A688A609A6851609960086198
S214400CC0036801330360704730B40D686B1C11D065
S214400CD000F1080200E01A4653681C68A542FAD2A2
S214400CE04B6099608A60516008610368013330BC8C
S214400CF00360704702695368F2E700BF4268816844
S214400D00036991608268416851605A68904205D094
S214400D1000220261186801381860704782685A607D
S214400D20F6E700BF0C4B1B6801330AD04FF0800338
S214400D3072B683F31188BFF36F8FBFF34F8F62B6DF
S214400D40FEE74FF0800372B683F31188BFF36F8FD0
S214400D50BFF34F8F62B6FEE70800402006480068A3
S214400D60006880F3088862B661B6BFF34F8FBFF362
S214400D706F8F00DF00BF000008ED00E0DFF80C00DA
S214400D80016841F4700101607047000088ED00E0A2
S214400D9070B403464FF08076074D6FF0020440F87B
S214400DA0081C443843F8202C43F8046C43F80C5C89
S214400DB043F8244C70BC7047250D4000064B19681C
S214400DC00868B0E8F04F80F30988BFF36F8F4FF0A4
S214400DD0000080F311887047580A4020704700BFD3
S214400DE04FF0800372B683F31188BFF36F8FBFF363
S214400DF04F8F62B60B4A13680133012B136000D045
S214400E007047094B1B6813F0FF0FF9D04FF0800373
S214400E1072B683F31188BFF36F8FBFF34F8F62B6FE
S214400E20FEE700BF0800402004ED00E0094A1368D2
S214400E3053B94FF0800372B683F31188BFF36F8FB8
S214400E40BFF34F8F62B6FEE7013B13600BB983F3E7
S214400E501188704708004020EFF30980BFF36F8F7A
S214400E60154B1A681EF0100F08BF20ED108A20E9B7
S214400E70F04F10604DF8043D4FF0800072B680F39E
S214400E801188BFF34F8FBFF36F8F62B601F0B6F88D
S214400E904FF0000080F3118808BC19680868B0E875
S214400EA0F04F1EF0100F08BFB0EC108A80F3098890
S214400EB0BFF36F8F704700BF580A4020704700BF8F
S214400EC008B5EFF311834FF0800272B682F31188B3
S214400ED0BFF36F8FBFF34F8F62B6054B984718B17D
S214400EE0044B4FF080521A60002383F3118808BDEC
S214400EF02D1C400004ED00E0034907220348044B44
S214400F0008601A60704700BF14E000E0BF27090081
S214400F1010E000E0234B0722234830B5197883B011
S214400F20FF25224CC9B201911D701B780260DBB2CE
S214400F308DF803309DF803309DF8031003F08003CE
S214400F40090623700DD5062200E00A469DF80330B8
S214400F50511E5B00DBB28DF803309DF803301B0654
S214400F60F3D401991202124B02F4E062C9B20D4C5E
S214400F70026021701A680F4942F460021A601A68CB
S214400F8042F060421A6088470B4A00210B4B1160C2
S214400F9098470B4A0B49136843F040431360884711
S214400FA0094B984700E400E0540A4020500A40208D
S214400FB020ED00E0F90E4000080040207D0D400086
S214400FC034EF00E05D0D4000250D4000EFF3058353
S214400FD00F2B10D91249134A5B5C12789A420AD9F1
S214400FE04FF0800372B683F31188BFF36F8FBFF361
S214400FF04F8F62B6FEE70C4B0C4A1B68126803F430
S214401000E06393420AD94FF0800372B683F31188A7
S214401010BFF36F8FBFF34F8F62B6FEE7704700BFD8
S214401020F0E300E0500A40200CED00E0540A402077
S21440103010B50446074B9847074B2046984704464A
S214401040064B98470CB1204610BD054B98472046A6
S21440105010BD00BF111C4000212F4000A11D4000C4
S2144010601D2C400050B1064B10B504469847054B22
S21440107020469847044BBDE810401847704700BFCD
S214401080111C4000312F4000A11D400038B51546C8
S214401090026C044642B905680DB1002029E040685C
S2144010A0164B9847656024E0154B65B980689847AD
S2144010B0A368216C62680B449342A360EDD3236817
S2144010C02846A36015E0C0689847236CE2685B42F8
S2144010D021681A448A42E26002D262681344E3609E
S2144010E0022DDAD1A36B002BD7D0A36B0020013B97
S2144010F0A363A36B0133A36338BD00BFD92340006D
S214401100A134400030B583B0446D0190ACB1A26BC1
S214401110E36B9A420AD34FF0800372B683F311888A
S214401120BFF36F8FBFF34F8F62B6FEE7A26B93425B
S2144011300ED80025284603B030BD4FF0800372B667
S21440114083F31188BFF36F8FBFF34F8F62B6FEE70E
S2144011500A460D4B01A920469847A36C0546013325
S21440116005D0A36C28460133A36403B030BD636A40
S214401170002BDFD004F12400044B9847002818BF0A
S2144011800125284603B030BD8D104000B5214000F3
S214401190026C034672B1084610B4D9685C681144C4
S2144011A0A142D96001D31968D960D9685DF8044B6B
S2144011B0014B1847704700BFA13440002DE9F0416D
S2144011C00446DFF89C80C047A36C002B1ADD204DF8
S2144011D0204F214E08E0A847012811D0A36C013BC0
S2144011E0A364A36C002B0DDD636D00212046002B0D
S2144011F0F1D1636A04F1240023B1B0470028EDD052
S214401200B847EBE74FF0FF33144FA364B847C047E7
S214401210636C002B15DD23699BB104F110060E4D5F
S214401220DFF8308007E0636C013B6364636C002B3F
S21440123007DD23692BB13046A8470028F3D0C047C6
S214401240F1E74FF0FF3363643B46BDE8F041184793
S2144012500511400005234000B52140002D0E4000FA
S214401260E10D40004FF0800372B683F31188BFF360
S2144012706F8FBFF34F8F62B6FEE7000070B5D8B1F0
S21440128004461D4B0E469847206C4FF0FF35E36BE7
S2144012900021226803FB00F3A260181A1344A163DE
S2144012A0024465646360E260A564CEB923692BB9E5
S2144012B0124B9847012070BD114B984704F110001F
S2144012C0104B98470128F3D10F4B4FF080521A60CD
S2144012D0BFF34F8FBFF36F8F084B9847012070BD09
S2144012E004F11000094DA84704F12400A847034B19
S2144012F09847012070BD00BFE10D40002D0E400014
S21440130065124000B521400004ED00E0910C40001D
S214401310F8B550B94FF0800372B683F31188BFF327
S2144013206F8FBFF34F8F62B6FEE7064617460D46F1
S214401330A9B101FB00F00E4B593098470446A8B1BE
S21440134000F158030360E663012125642046094BFB
S2144013509847002384F8507020466365F8BD5820AF
S214401360034B9847044608B12460ECE7024B984785
S214401370311040007D124000651240002DE9F04FCC
S21440138085B00192002800F0B780002900F09E80CA
S214401390022B00F08C801E46634B044688469847D6
S2144013A010B9019B002B6AD1A6F102054FF0000A46
S2144013B0DFF8A091B5FA85F55C4FDFF89CB16D0972
S2144013C022E00DF1080AB847594B9847C847636C66
S2144013D0013300F0A680A36C013300F09F80B8472D
S2144013E0504601A9534B9847002840F09080C84784
S2144013F0A26BE36B9A4217D0B8474F4B20469847AC
S2144014004E4B98474FF0010AC847A26BE36B9A428F
S21440141025D325BB019BEBB1BAF1000FD1D10DF11D
S214401420080A5046D847CEE7B847019904F110005D
S214401430434B9847404B20469847404B9847002898
S214401440E0D14FF080533F4A1360BFF34F8FBFF356
S2144014506F8FD7E7B847284605B0BDE8F08F3A4BC0
S2144014604146324620469847636D9BB131462046FA
S214401470364B9847012811D0B8470120ECE74FF08B
S214401480800372B683F31188BFF36F8FBFF34F8F1D
S21440149062B6FEE7636A43BB0028EDD0294B4FF0A7
S2144014A080521A60BFF34F8FBFF36F8FE4E7C26B73
S2144014B0012A3FF470AF4FF0800372B683F3118871
S2144014C0BFF36F8FBFF34F8F62B6FEE7026C002A02
S2144014D03FF45EAF4FF0800372B683F31188BFF3DC
S2144014E06F8FBFF34F8F62B6FEE704F12400184BB0
S2144014F098470128C0D1D1E74FF0800372B683F3F6
S2144015001188BFF36F8FBFF34F8F62B6FEE720465A
S214401510094B9847094B984700209DE70023A36452
S2144015205DE70023636456E7112340002D0E40001C
S214401530111C40006D224000BD114000A11D40001E
S214401540AD20400004ED00E08D1040000511400045
S214401550B5214000E10D40004922400028B32DE966
S214401560F041002947D0022B37D01D46374B044662
S21440157090460E469847EFF311874FF0800372B6B9
S21440158083F31188BFF36F8FBFF34F8F62B6A26BA2
S214401590E36B9A4214D3A5F10200B0FA80F04009FA
S2144015A070B987F31188BDE8F0814FF0800372B6BA
S2144015B083F31188BFF36F8FBFF34F8F62B6FEE79A
S2144015C0234B31462A4620469847A36C013320D009
S2144015D0A36C01200344A364E3E7C46B012CC4D08E
S2144015E04FF0800372B683F31188BFF36F8FBFF35B
S2144015F04F8F62B6FEE7046C002CB4D04FF08003E9
S21440160072B683F31188BFF36F8FBFF34F8F62B606
S214401610FEE7636D63B1294620460E4B9847012886
S21440162008D1B8F1000F05D00120C8F80000B8E78F
S214401630636A0BB90120B4E704F12400064B9847CF
S214401640B8F1000FF6D00028EED1F3E7CD0F4000FA
S2144016508D10400005114000B52140002DE9F04FA7
S21440166087B00392002866D0002900F0AF8001932F
S21440167004465E4B0F46984760B9039B5BB14FF0FC
S214401680800372B683F31188BFF36F8FBFF34F8F1B
S21440169062B6FEE70023564E564DDFF880B1DFF8BF
S2144016A080A1DFF8749106E0A847534B2046984740
S2144016B0524B984701230293B047A26B029B002AE5
S2144016C056D1DDF80C80B8F1000F4ED00DF1100861
S2144016D00BB94046D847A847D047B047636C01335C
S2144016E001D100236364A36C013301D10023A364BA
S2144016F0A847404603A9424B984700282CD1B047FC
S214401700A36B002BD0D1A8472368FBB1039904F103
S21440171024003C4B9847384B20469847374B9847D1
S2144017200028C7D14FF08053C9F80030BFF34F8F21
S214401730BFF36F8FBEE74FF0800372B683F3118816
S214401740BFF36F8FBFF34F8F62B6FEE7B047606858
S2144017502D4B9847A847D9E72046274B9847274B15
S2144017609847002007B0BDE8F08FA8474046F9E705
S214401770264B39462046E6689847019B63B9A36BDB
S2144017802268013BA36312B9214B984760602369E6
S214401790ABB9A8470120E5E7636AE660002BF8D0BE
S2144017A004F124001B4B98470028F2D01A4B4FF008
S2144017B080521A60BFF34F8FBFF36F8FE9E704F193
S2144017C01000144B98470128E3D1EFE7026C002A3B
S2144017D03FF44DAF4FF0800372B683F31188BFF3EA
S2144017E06F8FBFF34F8F62B6FEE700BF11234000F6
S2144017F0E10D40002D0E4000BD114000A11D4000EF
S2144018006D224000AD204000312340009111400041
S214401810A1244000B521400004ED00E049224000EC
S214401820111C40000023084A30B452F8334002EB03
S214401830C30524B10133082BF7D130BC704742F8BA
S2144018403310686030BC7047D00B402070B50446FB
S2144018500F4B0D4616469847636C013314D0A36C65
S21440186001330ED00B4B9847A36B2BB93246294613
S21440187004F12400084B98472046084BBDE87040CA
S21440188018470023A364EDE700236364E7E700BF3F
S214401890E10D40002D0E400031214000BD114000BA
S2144018A0034A044B1268D268D26852681A6070477E
S2144018B05C0A4020080B40200D4B0E4A19681268FF
S2144018C0486090420DD30C490C4A10B5044608684F
S2144018D01968043190470A4B1A68944200D21C603B
S2144018E010BD0849054A086819680431104700BF0A
S2144018F0580A4020500B40205C0A4020C90C40004B
S214401900080B4020600A40202DE9F84F0C9E804688
S2144019100D4692469946002E00F09680644C58201C
S214401920A0470446002800F09A804FEA8A0A0663D9
S214401930A521604B524630469847AAF1040A206BD0
S2144019406B1E05F1090104F1330582442AF0070AAB
S2144019505A7805F8012F13F8012F0AB19942F7D1AA
S2144019600A9D002704F1040B534E042D84F83D7065
S2144019705846E76428BF0425E562A564C5F1050519
S214401980B04704F11800B04727654C4B4A46A5615E
S214401990414684F8547050462461646298470B9BD5
S2144019A0206003B11C60464B9847464A464E136833
S2144019B0013313603368002B3FD0DFF84C81D8F8F2
S2144019C000302BB933680A9ADB6A9A4200D33460F7
S2144019D0DFF838E10125DFF838C15946E06ADCF81F
S2144019E00090DEF8002005FA00F300EB800043EAA2
S2144019F009032A44DFF8E890CEF80020226409EB79
S214401A008000324ACCF800309047314B9847D8F89F
S214401A1000307BB133680A9ADB6A9A420AD92D4B6A
S214401A204FF080521A60BFF34F8FBFF36F8F284638
S214401A30BDE8F88F2846BDE8F88F34601368012B60
S214401A4014D0DFF8C480C3E79000194CA047064680
S214401A5000287FF464AF4FF0FF30BDE8F88F304683
S214401A601D4B98474FF0FF30BDE8F88F1B4D1C4884
S214401A70A8471C48A8471C48A847DFF898801B483A
S214401A80A847DFF894901A48A8474046A8474846D3
S214401A90A8471848A8471848A8471848A847184AC3
S214401AA0184BC2F80080DFF86080C3F800908FE7DC
S214401AB031104000D5354000A90C4000910D400043
S214401AC0E10D4000C80A4020580A4020B10C4000B2
S214401AD02D0E400004ED00E065104000910C4000E3
S214401AE0640A4020780A40208C0A4020A00A402001
S214401AF0B40A4020100B40203C0B4020280B4020CE
S214401B005C0A4020600A4020240B4020D40A402033
S214401B10DC0A4020E00A4020F40A40204FF08003D0
S214401B2072B683F31188BFF36F8FBFF34F8F62B6E1
S214401B30FEE700BF70B403AC70CC60B1042C15D97E
S214401B404FF0800372B683F31188BFF36F8FBFF3F5
S214401B504F8F62B6FEE74FF0800372B683F311886C
S214401B60BFF36F8FBFF34F8F62B6FEE70394034C0D
S214401B7005960495A44670BC604700BF091940000E
S214401B8070B5002484B04FF400621949029423468D
S214401B90019400941748184DA84701280DD050B915
S214401BA04FF0800372B683F31188BFF36F8FBFF395
S214401BB04F8F62B6FEE704B070BD104B98470128C1
S214401BC0EDD14FF0800372B683F31188BFF36F8F69
S214401BD0BFF34F8F62B60A4D4FF0FF3609490A4AA7
S214401BE00A4B2E600860146004B0BDE87040184789
S214401BF0645E4000511F4000091940009125400096
S214401C00080B4020240B4020500B4020150F40006E
S214401C10024A136801331360704700BFD00A402061
S214401C20014B1868704700BF500B40202DE9F84F15
S214401C304C4B1B68002B70D14B4B1A6801321A6014
S214401C401E68002E5AD0DFF850A1DAF80020002493
S214401C5096426AD3454D464FDFF840812FE02A68CA
S214401C60D268D2F80C90D9F8041009F1040B8E42D1
S214401C7058466DD33F4B9847D9F8281009F11800BD
S214401C8009B13C4B9847D9F82C004FF0010E3A4B1F
S214401C9059460EFA00FE00EB80001B6807EB8000FA
S214401CA04EEA030E344BC3F800E0344B9847D8F85E
S214401CB00000D9F82C10C26A914228BF01242A6835
S214401CC01268002ACBD14FF0FF32CAF80020D8F86D
S214401CD000302B4ADB6A126803EB830357F8233045
S214401CE0022B28BF01240AB9264B9847264B1B686F
S214401CF0002B18BF01242046BDE8F88F1B4D2B68EB
S214401D001B68B3B14FF0800372B683F31188BFF3FC
S214401D106F8FBFF34F8F62B6FEE7194A002419490A
S214401D201368013313608847E0E7114FDFF86C8093
S214401D30CDE7164B2968164A18682860196013685C
S214401D40013313602B681B682BB1124B98477AE718
S214401D50CAF80010BBE7DFF840A04FF0FF32CAF8E1
S214401D60002072E7D00A4020500B40205C0A4020FA
S214401D70640A4020FD0C4000DC0A4020B10C4000C4
S214401D80CC0A4020192C4000540B4020600A4020CA
S214401D900C0B4020A1184000080B4020580A402059
S214401DA02DE9F04F384C83B0236853B94FF0800389
S214401DB072B683F31188BFF36F8FBFF34F8F62B64F
S214401DC0FEE7324B98472368013B23602368002B8D
S214401DD037D12F4B1B68002B33D0DFF8D8B02D4BB4
S214401DE02D4E2E4DDFF8D0A0DFF8D0901EE0DA68FA
S214401DF00193D46804F1040804F11800B047404643
S214401E00B047E06AD5F800E0414607FA00F200EB3A
S214401E10800042EA0E020AEB80002A60C847204A49
S214401E20E16A1268019BD26A914211D21A68012770
S214401E30002ADCD11B4C23686BB9DBF80040012C30
S214401E4019D00024184B9847204603B0BDE8F08FC1
S214401E50CBF80070EAE72368002BEED0134E01253E
S214401E60B04708B1CBF800502368013B2360236895
S214401E70002BF5D1E1E70E4B4FF080521A60BFF3CE
S214401E804F8FBFF36F8FDDE7D00A4020E10D400053
S214401E90C80A4020100B4020FD0C4000DC0A4020C1
S214401EA0580A4020CC0A40202D0E40002D1C4000F1
S214401EB004ED00E0540B4020640A4020B10C400082
S214401EC038B568B11A4B1A689AB14FF0800372B6AB
S214401ED083F31188BFF36F8FBFF34F8F62B6FEE771
S214401EE0144B4FF080521A60BFF34F8FBFF36F8F83
S214401EF038BD1A680446104D1048013210491A6021
S214401F00036828681C440430884740B92B6801227F
S214401F100C49D86A0B68824023EA02030B600A4BDE
S214401F2020469847094B98470028D9D038BD00BF6F
S214401F30D00A402004ED00E0580A4020500B4020D4
S214401F40FD0C4000DC0A4020B9184000A11D4000AE
S214401F502DE988481E4C1F4E1F4FDFF89490DFF83F
S214401F6094801E4DDFF890A008E02368D6F800B0B5
S214401F7001332360B847BBF1000F0FD12B68002B0D
S214401F80F3D1DAF80030012BF8D9154B4FF08052D8
S214401F901A60BFF34F8FBFF36F8FEFE7114B984731
S214401FA0F368D3F80CB0104B0BF104009847D9F8FF
S214401FB00030013BC9F800302B68013B2B600B4BCF
S214401FC09847DBF83000C0475846C047D6E700BFC2
S214401FD0D00A40203C0B4020A11D4000D80A40209B
S214401FE004ED00E0E10D4000FD0C40002D0E4000E9
S214401FF0C80A402065104000640A4020254B1B68F4
S214402000002B35D1244A10B5244C136023681B6B33
S2144020101A68B2F1A53F03D15A68B2F1A53F2BD05A
S214402020206821681E4B343198471E4B1B68B3FA14
S21440203083F3DBB21C4AC3F11F0303EB83039B000D
S214402040D058D11850B94FF0800372B683F3118838
S214402050BFF36F8FBFF34F8F62B6FEE70833486813
S2144020601A44436893424B600FD0DB68236010BD30
S214402070094B01221A6070479A68B2F1A53FCFD14A
S214402080DB68B3F1A53FCBD1CFE75B684B60DB683D
S214402090236010BDD00A4020540B4020580A4020F0
S2144020A0012C4000DC0A4020640A4020E8B1184B6E
S2144020B070B5184D0C462968183198472868164B55
S2144020C00430984740B92B6801221449D86A0B68F7
S2144020D0824023EA02030B60631C11D0104A114B66
S2144020E010682044BDE8704018474FF0800372B631
S2144020F083F31188BFF36F8FBFF34F8F62B6FEE74F
S214402100296809480431094BBDE87040184700BFAC
S214402110C90C4000580A4020FD0C4000DC0A402014
S214402120500B4020B9184000280B4020B10C40000E
S214402130F8B12DE9F041184C0D46184F1646216867
S2144021401831B8472068164B0430984740B9236882
S21440215001221449D86A0B68824023EA02030B60C6
S214402160012E11D0104A114B10682844BDE8F041AA
S21440217018474FF0800372B683F31188BFF36F8F12
S214402180BFF34F8F62B6FEE721683B4608480431EE
S214402190BDE8F041184700BF580A4020B10C400047
S2144021A0FD0C4000DC0A4020500B4020B91840008F
S2144021B0280B4020F8B5C368DC681CB304F118054A
S2144021C0194F2846B847194B1B6843BB261D184D68
S2144021D03046B847E26A0123164802EB820731468A
S2144021E093402A6800EB87001343134A2B609047BE
S2144021F0124BE26A1B68DB6A9A420ED9104B0120EA
S2144022001860F8BD4FF0800372B683F31188BFF3B1
S2144022106F8FBFF34F8F62B6FEE70020F8BD2946AA
S2144022200848054B9847E3E7FD0C4000D00A40209D
S214402230DC0A4020640A4020B10C4000580A402086
S214402240540B4020100B402008B530B1044A054BD3
S21440225012681B6880E80C0008BD034B984700BF17
S2144022600C0B4020500B40201D1B4000F8B50028AA
S21440227030D021B30D461F4B044698472B681E4866
S2144022805A1C016831D01D4E2768326897426268F2
S21440229006D0914204D30126194B98473046F8BDE4
S2144022A08F1ABB42F7D95B1A376801680026134479
S2144022B02B6027606160124B98473046F8BD4FF060
S2144022C0800372B683F31188BFF36F8FBFF34F8FCF
S2144022D062B6FEE74FF0800372B683F31188BFF311
S2144022E06F8FBFF34F8F62B6FEE70026044B9847CA
S2144022F03046F8BDE10D4000500B40200C0B40200E
S2144023002D0E4000014B01221A607047540B4020AE
S214402310054B1B6833B1054B1B68002B0CBF0220D6
S2144023200020704701207047240B4020D00A4020F0
S214402330002846D02DE9F041224CC36A2268D26A72
S214402340934212D28269002A04DB2268D26AC2F122
S2144023500502826103EB83031B4D426905EB830351
S2144023609A4204D02368DB6AC362BDE8F081071D49
S2144023700646164B3846984708BBF36A03EB83027B
S21440238055F82220DAB9124A0120116800FA03F300
S21440239021EA0303136020680123D2F800E039469F
S2144023A0C06A0C4C8340F06200EB800043EA0E03A8
S2144023B005EB800013602346BDE8F0411847044A09
S2144023C0E9E77047580A4020640A4020FD0C400068
S2144023D0DC0A4020B10C4000002842D0F8B52B4B18
S2144023E01B6898420AD04FF0800372B683F3118878
S2144023F0BFF36F8FBFF34F8F62B6FEE7C36C53B920
S2144024004FF0800372B683F31188BFF36F8FBFF32C
S2144024104F8F62B6FEE7C16A013B826CC36491424D
S21440242031D0002B2FD1071D0446194B384698470C
S214402430C8B11848184AA36C0125D2F800E03946BE
S21440244005FA03F6C3F10507E36203EB830346EAA6
S2144024500E06A76100EB8300104B1660984728468F
S214402460F8BD00207047E66A0A4806EB86030A4A2B
S21440247050F82330002BDED101251368B54023EAFF
S21440248005031360D7E70020F8BD00BF580A402078
S214402490FD0C4000640A4020DC0A4020B10C40009D
S2144024A0044B1A681AB11968CA6C0132CA641868B3
S2144024B0704700BF580A4020914208B5006141600D
S2144024C005D8D21A83699A4207D3012008BD9A429A
S2144024D001D29942F9D2044A00E0044A011D044B55
S2144024E010689847002008BD580B40205C0B4020E1
S2144024F0C90C40004FF0800372B683F31188BFF3D7
S2144025006F8FBFF34F8F62B6FEE700BF2DE9F041F5
S214402510134C144B984727681FB1134BBDE8F04146
S2144025201847124E124D3046DFF85C80C0472846AA
S214402530C047104BDFF854E03A461E601021052095
S2144025400D4BCEF800509847206030B10B4B0C49ED
S2144025509847054BBDE8F04118470A4B984700BFDF
S2144025608C0B4020E10D40002D0E4000600B4020BB
S214402570740B4020580B4020111340002518400093
S2144025806C5E4000F5244000910C40005C0B4020FF
S21440259010B5104B84B098470F4B1B687BB100209A
S2144025A004244FF480520D49039003460290019054
S2144025B000940B480B4CA04708B104B010BD4FF038
S2144025C0800372B683F31188BFF36F8FBFF34F8FCC
S2144025D062B6FEE70D2540008C0B4020745E40003E
S2144025E0E9264000351B400030B585B010B3124C8C
S2144025F00546206868B105298DE826000BDC0F4BA0
S214402600984702280ED00023206869460C4C1A468C
S214402610A04705B030BD1A4669460023094CA0477E
S21440262005B030BD20680023089A6946044CA04790
S21440263005B030BD044B98478C0B4020112340001A
S2144026407D1340005D154000F52440002DE9F0471D
S214402650204E82B0204FDFF888800CE0DB68DC68D4
S214402660D3F80090251D2846B847636A2046984709
S214402670E369012B0AD033681A68002AEED1174A5C
S21440268011681360316002B0BDE8F087A36929463F
S2144026904FF0000EDFF84CA009EB03054A467346A0
S2144026A02046A94504D2656024613068D047E2E7F9
S2144026B0CDF800E07146C0470028DCD14FF08003DB
S2144026C072B683F31188BFF36F8FBFF34F8F62B636
S2144026D0FEE700BF580B4020FD0C40005C0B40203E
S2144026E0E9254000C90C40002DE9F04FDFF8049280
S2144026F089B0DFF804A2DFF80482724D724ED9F832
S21440270000301C68002C4ED0DB681F68D047C0479E
S2144027106E4A03461268904256D36C4A874210600F
S21440272060D90022F91A2868694B9847694B984740
S21440273038B94FF08053684A1360BFF34F8FBFF3EA
S2144027406F8F002304A928681A46B0470028D6D0C1
S214402750049B002B1FDB069C636913B1201D5F4B57
S2144027609847C047594B02461B68984235D3049B4E
S2144027705649092B0A60E4D8012101FA03F313F401
S214402780047B63D113F0C70F69D19B06D9D5204689
S214402790534B9847D5E7059B079906989847049B5F
S2144027A0002BCEDBD7E7D047C047484A03461268DF
S2144027B0824209D84B4A2746444912680B60126841
S2144027C0B2FA82F25209ADE70393474B9847039B10
S2144027D03E4A13603F4B9847B3E7434B03909847B6
S2144027E0039AC4E703933B4B9847D9F800203B4BEA
S2144027F0D268D2F80CB00BF104009847DBF81C20E6
S214402800039B012A04D0DBF824305846984798E7C3
S214402810DBF818101A4658463B463944334CA04716
S2144028200128F0D100233A465846314C00931946C9
S214402830A0470028E7D14FF0800372B683F3118893
S214402840BFF36F8FBFF34F8F62B6FEE70599A16166
S21440285069B3114420461346244CA04771E7059BB4
S2144028602046A169214F1944B84701287FF469AF33
S214402870636A20469847E369012B7FF462AF059A66
S2144028802046A4695B46CDF800B059462244184C11
S214402890A04700287FF455AF4FF0800372B683F30D
S2144028A01188BFF36F8FBFF34F8F62B6FEE74FF0CE
S2144028B0800372B683F31188BFF36F8FBFF34F8FD9
S2144028C062B6FEE78C0B40205D164000880B402029
S2144028D04D184000A11D400004ED00E0FD0C4000F6
S2144028E0651040005C0B40204D264000B924400057
S2144028F0E9254000580B4020111C4000211C400098
S21440290010B582B000236420044A02A9044C41F862
S214402910040D10681A46A04702B010BD1C0C40209B
S2144029205D154000004B1847012940002DE98048BE
S214402930012385B04FF400624FF02051334C3448A9
S214402940A047344950234FF40062334E00910A2189
S2144029502F48B047314D4FF400612D48A847304CC2
S2144029602B48A0472F4F4FF4806180222E4B1020DB
S214402970396087F80A23984708224FF080512B4841
S2144029802B4B984701224FF080512848294B9847B7
S214402990294950234FF08052009110212348B047D8
S2144029A04FF0805121480026A8472048A047234D95
S2144029B04FF48031A0224FF4FA63214CDFF884A014
S2144029C0DFF88490DFF88480DFF884B0396087F8D9
S2144029D010230293002303A928681A460396A047AB
S2144029E00028F7D002980023039F0A2202A9C71B9B
S2144029F0DAF800000297C84702995846C047029B3B
S214402A00642BE7D14FF461730293E3E75905400026
S214402A10000E0E4025294000B9064000250640001D
S214402A202906400000E100E08D08400000140E40FA
S214402A30ED04400041044000012940001C0C4020A9
S214402A405D164000140C40207D134000F92E4000D7
S214402A50505F40002D4B0022F0B5984283B00446AC
S214402A600D4601923AD02A4B98423FD0294B984285
S214402A7044D0294B984215D0284B984224D0284B16
S214402A809C4217D0274B9C4201D003B0F0BD01AF0B
S214402A90254E39462046B0470028FAD1019B2B7078
S214402AA003B0F0BD214E29462046B0470028FAD153
S214402AB003B0F0BD01AF1C4E39462046B047002853
S214402AC0FAD1019B2B70EBE701AF174E39462046F3
S214402AD0B0470028FAD1019B2B70E1E7134E07461A
S214402AE029463846B0470028FAD1C8E70F4E074671
S214402AF029463846B0470028FAD1C0E70B4E07466D
S214402B0029463846B0470028FAD1BBE700080E40B1
S214402B10000A0E40001A0E40001C0E4000400240C4
S214402B200080024000C00240E5094000E508400041
S214402B302A4B984270B50D461CD0294B984222D05D
S214402B40284B984228D0284B98422ED0274B984264
S214402B5007D0274B984238D0264B98422DD000209D
S214402B6070BD0446244E29462046B0470028FAD178
S214402B70012070BD0446214E29462046B047002815
S214402B80FAD1012070BD04461C4E29462046B04767
S214402B900028FAD1012070BD0446184E294620462A
S214402BA0B0470028FAD1012070BD0446134E29468E
S214402BB02046B0470028FAD1DAE704460E4E2946AA
S214402BC02046B0470028FAD1D2E704460A4E2946A6
S214402BD02046B0470028FAD1CAE700BF00080E409A
S214402BE0000A0E40001A0E40001C0E4000400240F4
S214402BF00080024000C00240CD094000D508400099
S214402C0008B50A46024B014602489847FEE700BF11
S214402C10F92E4000705F4000704700BF4FF08003C1
S214402C2072B683F31188BFF36F8FBFF34F8F62B6D0
S214402C30FEE700BF70B50D46074B04469847294649
S214402C4020B92046054BBDE8704018472046044B47
S214402C50BDE87040184700BF190640004D044000CC
S214402C605104400010B5074B82B004460C209847EC
S214402C70002322464FF480710348044C0093A0473B
S214402C8002B010BD8D08400000120E4025054000E1
S214402C902DE9F04F83B0144B01204FF4FA64984767
S214402CA002AD0023DFF850A0DFF85090DFF85080E8
S214402CB00E4FDFF850B00E4E45F8043D05E0304666
S214402CC04FF48071C0472046B84700232946DAF8BB
S214402CD000001A46C8470028F1D0019C5846054BCC
S214402CE021469847EBE700BF652C4000C11E4000D8
S214402CF000120E40F92E4000140C40205D16400095
S214402D00352C4000605F400080B5444B8AB0984701
S214402D10434E444B0025444F9847444C4FF4E133D0
S214402D204348C02137604FF40062424E424F046031
S214402D300E200493414B37600591069207950895FF
S214402D4098473F4A04A920463E4B98473E4E204669
S214402D503E4B984720463E4B984733683D4F294662
S214402D609868B847336829463B4C5868B847336834
S214402D7029463A4E9868B8473948A047294603221C
S214402D800120B047374B1860002843D0032200216B
S214402D900120B047344B1860002838D00022042168
S214402DA02020B047314B186000282DD00022042147
S214402DB02020B0472E4B186018B300204FF4806296
S214402DC02C49034603900290019000902A4D2B48D0
S214402DD0A847012814BF2A482A48A04700204FF495
S214402DE0806229490346039002900190009027484C
S214402DF0A847012814BF26482648A047264B984790
S214402E00FEE72648A047D8E72448A047CEE7244810
S214402E10A047C3E72348A047B8E700BFAD0140003E
S214402E20C80B4020AD024000312B400000800240DD
S214402E30CC0B4020C40B4020552A40008D08400053
S214402E4080D1F008590940000C004020BD094000E0
S214402E50C5094000AD364000F92E40001113400031
S214402E607C5E4000100C4020180C4020140C402083
S214402E701C0C4020E05E4000351B4000912C40007A
S214402E80E45E4000085F40001C5F40002D29400083
S214402E90205F4000405F4000811B4000C45E400011
S214402EA0A85E40008C5E400070B50F4E0F4D761BFE
S214402EB0B61018BF002405D0013455F8043B984797
S214402EC0A642F9D10A4E0B4D761B03F011F9B61007
S214402ED018BF002406D0013455F8043B9847A64254
S214402EE0F9D170BD70BD00BFFC604000FC60400082
S214402EF004614000FC6040000FB400B5074983B051
S214402F0004AB086853F8042B8168019300F066FD13
S214402F1003B05DF804EB04B0704700BF0C004020DF
S214402F20024B0146186800F00BB800BF0C0040206A
S214402F30024B0146186801F06DBE00BF0C004020F1
S214402F402DE9F04F01F10B06162E83B0054640F2F0
S214402F509E8036F0070600F1BD80B14200F2BA808E
S214402F6000F086FBB6F5FC7FC0F09382730A00F053
S214402F70B880042B00F27981B30903F1390003F1DC
S214402F80380EC300BF4F3B44A3F108015C68A14222
S214402F9006D10CE0002A80F2AA80E468A14206D05E
S214402FA0636823F003039A1B0F2AF3DD70463C69DF
S214402FB0DFF8E4E2744500F0AB81636823F0030376
S214402FC09A1B0F2A00F39081002AC7F814E0C7F82E
S214402FD010E080F29D80B3F5007F80F06181DB08D1
S214402FE003F1010C99107A6857F83C80C4F80880C1
S214402FF001238B4007EBCC0113430839E1607B602B
S21440300047F83C40C8F80C408210012494409C424B
S21440301000F28B801C4206D120F0030064001C4264
S21440302000F10400FAD007EBC009CC468046DCF835
S2144030300C309C4507D16DE1002A80F27B81DB682D
S2144030409C4500F06781596821F003018A1B0F2ACE
S214403050F2DDD3F80CC0D3F8088000939C192846BC
S21440306046F0010642F001055E60C8F80CC0CCF898
S21440307008807C613C61C4F80CE0C4F808E06560F8
S2144030805A5000F0FBFA009B03F108041EE010299A
S21440309020D800F0EDFA102618230220794F3B4442
S2144030A0A3F108025C68944200F03D816368E168E1
S2144030B0A66823F00303234428465A68F16042F08A
S2144030C001028E605A6000F0D9FA0834204603B0F8
S2144030D0BDE8F08F00240C2320462B6003B0BDE8EB
S2144030E0F08F40204FF400734FF03F0E4AE72344E2
S2144030F0E1685A68A66842F00102F16028468E6090
S2144031005A6000F0BBFA0834204603B0BDE8F08FA2
S214403110234428465A6842F001025A6000F0AEFA4C
S2144031200834204603B0BDE8F08FBC68636823F0DF
S2144031300308B04504D3A8EB06030F2B00F38580A5
S214403140DFF85891504BD9F800201B6801323344C1
S21440315004EB080A00F0558103F580530F3323F43F
S2144031607F6B2BF00F0B5946284600F08DFA411C1A
S214403170024600F0FC80824500F2F780434B196817
S2144031805944196000F04D81D9F8000001301BBF4A
S214403190A2EB0A0A5144C9F80020196012F0070150
S2144031A000F01581C1F10800C1F580510244083194
S2144031B002EB0B09C9F30B09A1EB0909494628465E
S2144031C00193009200F060FA431C9DE80C0000F06A
S2144031D04381801A484440F001001968BA60494467
S2144031E0BC425060196017D0B8F10F0F40F2FB8018
S2144031F06068A8F10C0222F0070204EB020E00F011
S21440320001004FF0050C10430F2A6060CEF804C052
S214403210CEF808C000F217811D4BBC681A68914270
S21440322088BF19601B4B1A689142626888BF196054
S21440323022F003029642A2EB060301D80F2B04DCD1
S214403240284600F01BFA002440E7A21943F0010389
S21440325046F0010666602846BA60536000F00EFAF3
S2144032600834204603B0BDE8F08F142B71D9542B98
S21440327000F2A380330B03F16F0003F16E0EC30020
S21440328080E600BF38044020C00B4020900B402012
S214403290B80B4020BC0B4020400440204008402053
S2144032A05A0A042A5BD9142A00F2AE8002F15C0165
S2144032B0C9005B3207EB010C7958ACF1080C8C4521
S2144032C000F088804A6822F00302934273D28968ED
S2144032D08C45F7D1DCF80C207B68E260C4F808C067
S2144032E09460CCF80C408FE6A11946F0010C42F0F1
S2144032F00106C4F804C0284679613961C1F80CE07B
S214403300C1F808E04E60E25000F0B8F90834DDE657
S2144033107B6879E608F1010818F0030F0CF1080CF9
S2144033207FF485AE2DE0DC68A34208BF02303FF450
S2144033303EAEBBE619441C464A68DB6854F8086F44
S21440334042F001024A602846F3609E6000F096F91B
S214403350BCE603F15C0003F15B0EC30012E69A097B
S21440336002F13901C9003832A4E7BC4254D0BC68E7
S214403370626822F003025DE759F80839994540F043
S214403380868010F0030F00F1FF30F5D17B6823EA0A
S21440339004037B6064009C423FF6C7AE002C3FF4BB
S2144033A0C4AE1C4240467FF43EAE64001C4200F170
S2144033B00400FAD037E68C468CE7B3F5AA7F15D8DA
S2144033C0F30B03F1780003F1770EC300DAE54FF410
S2144033D08051EDE67B689210012101FA02F2134318
S2144033E07B60624679E70123536029E740F25452F6
S2144033F0934222D8B30C03F17D0003F17C0EC30048
S214403400C0E503F1100BAEE6542A29D81A0B02F198
S2144034106F01C9006E324DE7204B19685944196058
S214403420B2E6CAF30B0000287FF4AEAE08EB0B03FF
S214403430BA6843F001035360EEE67F204FF47E7394
S2144034404FF07E0E9EE504F108012846009301F0F9
S214403450E1FB009B1968DFE601204FF00009BCE65F
S214403460B2F5AA7F05D8DA0B02F17801C9007732A7
S21440347020E740F254518A4205D89A0C02F17D0169
S214403480C9007C3216E74FF47E717E2212E77B68D5
S21440349080E7F00806F1080300E600BF900B4020E6
S2144034A0844641EA000313F003036DD1403A41D30A
S2144034B051F8043B40F8043B51F8043B40F8043BC9
S2144034C051F8043B40F8043B51F8043B40F8043BB9
S2144034D051F8043B40F8043B51F8043B40F8043BA9
S2144034E051F8043B40F8043B51F8043B40F8043B99
S2144034F051F8043B40F8043B51F8043B40F8043B89
S21440350051F8043B40F8043B51F8043B40F8043B78
S21440351051F8043B40F8043B51F8043B40F8043B68
S21440352051F8043B40F8043B51F8043B40F8043B58
S214403530403ABDD2303211D351F8043B40F8043BF8
S21440354051F8043B40F8043B51F8043B40F8043B38
S21440355051F8043B40F8043B103AEDD20C3205D308
S21440356051F8043B40F8043B043AF9D2043208D000
S214403570D2071CBF11F8013B00F8013B01D30B8872
S21440358003806046704700BF082A13D38B078DD050
S21440359010F003038AD0C3F10403D21ADB071CBF22
S2144035A011F8013B00F8013B80D331F8023B20F88C
S2144035B0023B7BE7043AD9D3013A11F8013B00F8C5
S2144035C0013BF9D20B7803704B7843708B7883704D
S2144035D06046704770B4860746D0541E002A41D0D5
S2144035E0CAB2034602E014F1FF343BD303F8012B82
S2144035F09D07F8D1032C2ED9CDB245EA05250F2CD0
S21440360045EA054519D903F110022646103E0F2E0D
S21440361042F8105C42F80C5C42F8085C42F8045CE5
S21440362002F11002F2D8A4F1100222F00F0204F0C8
S2144036300F041032032C13440DD91E462246043A7A
S214403640032A46F8045BFAD8221F22F0030204320B
S214403650134404F003042CB1C9B21C4403F8011B04
S2144036609C42FBD170BC704714460346C2E700BF7D
S214403670014801F069BD00BF300C4020014801F010
S21440368065BD00BF300C402038B5074C00230546CA
S21440369008462360FDF7CCFA431C00D038BD2368AB
S2144036A0002BFBD02B6038BD440C402000290CBFBB
S2144036B0022200224FF4806300F000B82DE9F04368
S2144036C0614C256883B004460F4690461E4615B1A9
S2144036D0AB6B002B64D0B8F1020F06D0B8F1010FE7
S2144036E000F29F80002EC0F29C80636ED80734D5CF
S2144036F02146284601F010F9216B41B104F1400300
S214403700994202D0284601F085FA00232363B4F993
S2144037100C300022A26162601A063AD423F44A634F
S21440372023F00303B8F1020FA3811DD001AB6A4614
S2144037302146284601F00CFDA3891843A081002E9F
S21440374032D1009E3046FFF7EBFB074600286BD091
S214403750A38943F08003A38128E0A3899905C7D4B1
S214403760A06D01F0F1FCC3E70025616E002604F170
S214403770430243F002030120A660CE07A3812260E5
S2144037802261606101D498053ED5284603B0BDE865
S214403790F0832169284601F03DFAB4F90C30BDE7C4
S2144037A0284601F011F996E7002FCBD0AB6B002BE3
S2144037B033D0009BB4F90C2027609E421CBF42F4D5
S2144037C00062A281B8F1010F04BF42F00102A2815B
S2144037D092B212F00803276166610ED0D1071AD55F
S2144037E0656E7642002315F00105A661A36009D0F8
S2144037F00025284603B0BDE8F083A360656E15F04B
S2144038000105F5D19305C0D4A06D01F09FFC284674
S21440381003B0BDE8F083A660F0E7284601F0D4F890
S214403820C7E74FF0FF35B0E7DDF80090B14504D06C
S2144038304846FFF775FB074620B9B4F90C304FF001
S214403840FF3592E74E4683E70C004020000000001C
S2144038500000000000000000000000000000000023
S2144038600000000000000000000000000000000013
S2144038700000000000000000000000000000000003
S21440388090F800F06DE9024520F007016FF0000C5B
S21440389010F0070491F820F040F049804FF0000403
S2144038A06FF00700D1E9002391F840F000F10800DE
S2144038B082FA4CF2A4FA8CF283FA4CF3A2FA8CF316
S2144038C04BBBD1E9022382FA4CF200F10800A4FA7D
S2144038D08CF283FA4CF3A2FA8CF3E3B9D1E90423D1
S2144038E082FA4CF200F10800A4FA8CF283FA4CF308
S2144038F0A2FA8CF37BB9D1E9062301F1200182FAC2
S2144039004CF200F10800A4FA8CF283FA4CF3A2FAC7
S2144039108CF3002BC6D0002A04BF04301A4612BAD5
S214403920B2FA82F2FDE8024500EBD2007047D1E9D8
S214403930002304F00305C4F100004FEAC50514F067
S214403940040F91F840F00CFA05F562EA05021CBF38
S21440395063EA050362464FF00004A9E72DE9F84FF5
S2144039604B6E9C0493462FD59368126853B30E460D
S214403970074602F1080919E920045FEA9A0817D0B9
S214403980043D002401E0A04510D0324655F8041FFF
S214403990384601F0BBF8431C04F10104F3D1002380
S2144039A0CBF80830CBF80430BDE8F88FDBF80830A9
S2144039B02AF0030AA3EB0A03CBF8083009F10809FA
S2144039C0002BD8D10020EAE701F00AFA0023CBF812
S2144039D00830CBF80430BDE8F88F00BF2DE9F04F33
S2144039E0ADB01D468B4690460793069018B1836B44
S2144039F0002B00F0F380DBF86430BBF90C00DF07E7
S214403A0081B202D48E0540F1FC808C040AD4DBF8E7
S214403A10643040F4005123F40053ABF80C10CBF85C
S214403A20643089B2080740F1B380DBF81030002BD1
S214403A3000F0AE8001F01A030A2B00F0B580002398
S214403A400DF170090B93119310930393CDF83C90AE
S214403A50CA46CDF810B098F800304446FBB1252B46
S214403A6002D11CE0252B03D014F8013F002BF9D1DE
S214403A70A4EB08059DB1109B119ACAF8008001334B
S214403A802A44072BCAF80450119210937ADD002A74
S214403A9040F0B084039B10922B44CA46039323788D
S214403AA0002B00F0E08300204FF000038DF8373005
S214403AB004F1010862780546064603464FF0FF3497
S214403AC008F10108A2F12001582900F2DE82DFE861
S214403AD011F02102DC02DC022902DC02DC02DC02FC
S214403AE0DC02DC02DC0289029502DC02A200BD0296
S214403AF0DC029F01A401A401A401A401A401A40125
S214403B00A401A401A401DC02DC02DC02DC02DC022B
S214403B10DC02DC02DC02DC02DC02B201DC02DC029B
S214403B20DC02DC02DC02DC02DC02DC02DC02DC0260
S214403B309701DC02DC02DC02DC02DC029B01DC02D8
S214403B40DC025302DC02DC02DC02DC02DC02DC02C9
S214403B50DC02DC02DC02DC025A021B02DC02DC0273
S214403B60DC026E021B02DC02DC027302DC02F501A0
S214403B7082010902D702DC029A02DC02A700DC02BC
S214403B80DC022E020AF1080A039B2B44039386E7C5
S214403B905946069800F0ACFD18BBBBF80C1001F077
S214403BA01A030A2B7FF44BAFBBF90E30002BFFF6FF
S214403BB046AFDBF86430DB0705D48F0503D4DBF86B
S214403BC0580001F0C3FA2B4642465946069800F084
S214403BD04DFD039003982DB0BDE8F08F00F0F4FE45
S214403BE009E7DBF86430D90704D4BBF80C309A05F3
S214403BF040F1AA844FF0FF33039303982DB0BDE8FD
S214403C00F08FDBF8580001F09FFABBF90C0081B248
S214403C10FBE67642079243F0040398F800204FE70D
S214403C2008969E0600F150840799DD060A4600F184
S214403C30EF83580640F1EC830E88043100270122BA
S214403C4007914FF000018DF837100025611C00F0F9
S214403C50168123F08001029156EA070140F0148154
S214403C60002C40F05C83002A40F0B78313F0010339
S214403C70059300F057840DF1B00B30230BF8413D0F
S214403C80059BA342B8BF234601930DB10133019370
S214403C90029B13F00203099302D0019B0233019367
S214403CA0029B13F084030A9340F01782089B019A04
S214403CB09D1A002D40F31182102D40F39084109BE6
S214403CC0119AC44ED6461027A2461946069C07E0CF
S214403CD001F1020C0EF1080E0146103D102D11DDCB
S214403CE0481C1032072811928EE8C0001090EFDD75
S214403CF0002A40F0E481103D102D11464FF0010C93
S214403D00CE46EDDC54466146F2462A4407291192D7
S214403D10CAF80060CAF80450109100F3EC829DF88F
S214403D2037500AF1080A481C002D40F0DE81099BF6
S214403D30002B00F0F88102320EA9022307281192C8
S214403D4010908AE80A0040F3EA81002A40F08C830B
S214403D500A9B802B4FF001001146CA4640F0E7818F
S214403D60089B019D5E1B002E40F3E181102E9A4D6C
S214403D7040F35084D4461027A246069C07E001F143
S214403D80020E0CF1080C0146103E102E11DD481CA8
S214403D901032072811928CE8A0001090EFDD002A20
S214403DA040F09D82103E102E4FF0010E1146CC463C
S214403DB0EDDC5446E2463244BEF1070F11928AE8E3
S214403DC06000CDF840E000F369830AF1080A0EF17E
S214403DD001007146ABE1089613F0200240F08C8358
S214403DE013F0100140F01A8313F0400200F01683DF
S214403DF007980A460146043106880791002720E7BF
S214403E00089643F01003E7E7089643F0100308E7E8
S214403E1043F0800398F8002052E6A2F130010026D5
S214403E2018F8012B06EB860601EB4606A2F1300198
S214403E300929F5D946E60896002840F0088443F05C
S214403E4010039E0600F14C83DD0600F1F38258060F
S214403E5040F1F082079DB5F900602A46F717043214
S214403E60304639460792002871F10002C0F25D8361
S214403E70611C9DF837504FF001027FF4EAAE56EAD7
S214403E80070100F04D820293012A00F08C82022A3C
S214403E9040F05C820B98CB46330906F00F0143EAAC
S214403EA007733A091E461746435C0BF8013D56EA2F
S214403EB00703F1D1A9EB0B030593E1E6002840F098
S214403EC0C083990600F16783DA0600F1F1805B064D
S214403ED040F1EE80079A136804320792BDF80C2032
S214403EE01A80B8E507983D4A08960B9206687822ED
S214403EF0302104308DF8392043F002030790002724
S214403F008DF8381002229CE60896002899D08DF845
S214403F10375096E798F80020002D7FF4D1AD012069
S214403F202025CDE543F0010398F80020C8E5089623
S214403F30002840F0938329490B919F0600F1E882C0
S214403F400798DE06014600F170825D0640F16D82FC
S214403F500431068807910027D80740F1228256EAA6
S214403F60070100F01E8230218DF8392043F002030D
S214403F708DF83810022264E60896002840F06B83DD
S214403F8017490B91D9E7079908960A688DF8482093
S214403F904FF000000A468DF83700043201200190A9
S214403FA0079205900DF1480B0293002470E643F00B
S214403FB0400398F8002083E598F800206C2A03BF59
S214403FC098F8012043F0200308F1010843F010035D
S214403FD076E500BFBC5F4000CC5F4000A05F40007D
S214403FE08C5F400007990E680A46002E02F10402D4
S214403FF0FFF60FAE079298F8002061E598F800208B
S21440400001202B255CE507990896D1F800B04FF0C3
S21440401000028DF837200E1DBBF1000F00F0E58240
S214404020671C00F0C482224600215846019301F0E6
S2144040301FF9019B002800F0E582A0EB0B020592D9
S214404040079602939DF83750002419E698F800200A
S2144040502A2A08F1010700F0E982A2F13001092975
S214404060B8464FF000043FF62DAD18F8012B04EB90
S214404070840401EB4404A2F130010929F5D921E575
S21440408043F0200398F800201AE50896002840F0F0
S214404090DB82002A00F0E78001218DF848204FF0AF
S2144040A0000201918DF8372005910DF1480B7BE712
S2144040B0079A136804320792039A1A60CBE40FAA51
S2144040C004992046FFF74AFC002840F039811099B1
S2144040D0119A01F1010CCE46FFE51099119A481C41
S2144040E09DF83750002D3FF422AE01320DF13705D2
S2144040F00121072811921090CAF80050CAF80410FF
S21440410040F30881002A40F0BC81099B002B3FF415
S2144041101FAE0EAB022208461C931D92CA460146AD
S2144041200AF1080A01300A9B802B3FF419AE059B22
S214404130E41A002C2EDD102CB34D1EDDD64610267C
S214404140069FDDF810A006E0881C0EF1080E194602
S214404150103C102C10DD4B1C1032072B11928EE8B1
S21440416060001093F0DD002A65D1103C102C4FF013
S21440417001001146CE46EEDCF24622440728119254
S214404180CAF80050CAF80440109000F385800AF13F
S214404190080A01300599CAF800B00A440728119267
S2144041A0CAF80410109040F38280002A40F018812C
S2144041B0029B1092580735D5089B01995C1A002C33
S2144041C040F3E780CA46102C40F3188210998F4E71
S2144041D0069FDDF810B0102506E0881C0AF1080A94
S2144041E01946103C102C11DD4B1C1032072B119237
S2144041F0CAF80060CAF804501093EEDD42BB103C8B
S214404200102C4FF001001146CA46EDDC2244072828
S2144042101192CAF80060CAF80440109051DD002A96
S21440422040F09B81039B089A01998A42ACBF9B1839
S2144042305B1803934EE00FAA51463846FFF78EFBB5
S214404240002840F03F811099119A481CCE467FE7DF
S2144042500FAA59463846FFF781FB60B91099119A64
S214404260481CCA46BDE7119BDDF810B0002B40F055
S214404270D48100231093DBF8643013F0010FBBF8B1
S2144042800C3002D19A0540F1DE805B063FF5B2ACB9
S21440429003982DB0BDE8F08F002A40F00681059ABD
S2144042A01D9201231192CDF870B01093CA460AF1C0
S2144042B0080A029B590704D5089B01995C1A002CF2
S2144042C081DC039B089901988142ACBF5B181B18A0
S2144042D0039372BB00231093CA46FFF7BCBB0FAADA
S2144042E004992046FFF73AFB50BB1099119A01F10A
S2144042F0010ECC4648E5002A40F040819DF8371034
S214404300002900F01B8101220DF1370110461D9255
S2144043101C91CA4601460AF1080A013007E5029B8D
S214404320012A00F09880022A0DD102930026002729
S214404330B0E50FAA04990698FFF710FB0028C9D0ED
S214404340DDF810B097E7029300260027494600E0C4
S2144043505946F20842EA4772F80806F0070307464D
S2144043601646303356EA070201F8013C01F1FF3B9E
S214404370EED1029AD6077FF59DAD302B3FF49AAD2D
S214404380023930230BF8013CA9EB010305938B4619
S21440439076E4039B089A8A42ACBF9B185B1803934B
S2144043A098E702224DE4002F08BF0A2E52D3CB4690
S2144043B0304639460A22002301F0C6FB30320BF85D
S2144043C0012D3046394600230A2201F0BDFB064641
S2144043D00F4656EA0703EBD16CE50594CB464FE40F
S2144043E00FAA04990698FFF7B9FA0028A8D1119A9F
S2144043F0CA465EE70FAA04990698FFF7AFFA002868
S2144044009ED1CA46FFF7C0BBCC5F4000BC5F4000B1
S2144044100431166807910122002712E407980146E6
S21440442004310668079100270BE40E6804310791B3
S214404430002791E507990E680A46F7170432079257
S214404440304639460FE5DBF8580000F07FFEBBF8F3
S2144044500C301AE7029B02930DF1B00B3036012365
S2144044600BF8416D05930BE40FAA04990698FFF7E5
S21440447075FA00287FF464AF1099119A481CCA4612
S21440448051E60FAA04990698FFF768FA00287FF4C9
S21440449057AF1099119A481CCA4648E4002A40F083
S2144044A0918001201146CA4641E60FAA0499069813
S2144044B0FFF754FA00287FF443AF1098119A013062
S2144044C0CA4667E6D346D6E6079E073626F0070274
S2144044D002F10801D2E9006707910122FFF7B1BB5C
S2144044E0079E073626F00706D6E9000106F10802C1
S2144044F0079206460F46B6E4079E073626F00702A2
S21440450002F10801D2E9006707910022FFF799BB44
S214404510079E073626F0070101F108000790D1E90B
S214404520006719E5CB46FFF7ABBB2D25764267EB18
S21440453047078DF837500122FFF788BB099BB3B970
S21440454011460120CA46F2E5DBF8580000F0FEFDB1
S2144045504FF0FF330393FFF750BB0FAA049906981A
S214404560FFF7FCF900287FF4EBAE119AA9E60EABF4
S21440457002221C931D920120CA46D0E50FAA049938
S2144045800698FFF7EBF900287FF4DAAE1099119AF7
S214404590481CCA46A4E5079A03991368CD170846EF
S2144045A0043229460792C3E90001FFF754BA584639
S2144045B007960293FFF764F9002405909DF837505C
S2144045C0FFF75EBB0FAA04990698FFF7C7F90028C5
S2144045D07FF4B6AE1099119A481CCA46A7E51099C2
S2144045E0119A204E0131FFF790BB062C28BF0624B7
S2144045F0059407960194DFF870B0D5E41098194EEC
S214404600013003E605949DF837500796029304461A
S214404610FFF736BB8646FFF7CEBB06980FAA59462D
S214404620FFF79CF900283FF424AE24E6079998F853
S21440463001200C68043144EAE474B8460791FFF759
S2144046403FBA8DF837503CE48DF8375021E58DF869
S2144046503750FFF7F4BB8DF8375091E48DF837505C
S21440466069E400BFBC5F4000B45F40002DE9F04104
S2144046700C46ADF58D6D8989666EE589199621F0F3
S21440468002010646E069ADF80C1017464FF480610B
S214404690626AADF80E5098461AAD0023079016A8E9
S2144046A009920693009504950291059100F048FD05
S2144046B043463A4669463046FFF790F9051E07DB03
S2144046C03046694600F028F9002818BF4FF0FF35FD
S2144046D0BDF80C305B0603D5A38943F04003A381A5
S2144046E0169800F02FFD28460DF58D6DBDE8F0813B
S2144046F038B5304B1B6805460C4613B19A6B002AFA
S21440470038D0B4F90C2093B218070CD52069A8B15C
S21440471013F001021ED0636900225B42A361A260CF
S214404720F0B1002038BDD9063CD5580726D42069BC
S21440473042F00803A3819BB20028E9D103F420721B
S214404740B2F5007FE4D02846214600F02FFDA3892D
S2144047502069DDE7990758BF6269A2600028E0D16A
S214404760B4F90C301A06DDD543F04003A3814FF070
S214404770FF3038BD184600F027F9C2E7216B51B12B
S21440478004F14003994204D0284600F043FAB4F9B5
S2144047900C200023236300232069636022F0240258
S2144047A02060C5E742F0400209232B604FF0FF30FF
S2144047B0A28138BD0C004020024B13B1024800F0E5
S2144047C005B8704700000000394A40000023014603
S2144047D01A46184601F090B8B1F90C309AB22DE955
S2144047E0F0410D46110780463AD46A6843F40063A8
S2144047F0002AAB816FDDAC6A002C49D000229BB208
S214404800D8F80060C8F8002013F4805267D02A6DAC
S2144048105F0705D569682B6B521A0BB1EB6BD21A42
S2144048200023E9694046A047441C3CD0B5F90C300B
S2144048302A692A6023F400630022AB81DB046A60A5
S21440484047D4296BC8F8006011B305F1400399427C
S21440485002D0404600F0DEF900202863BDE8F08133
S2144048602E69AEB12C682E6091070CBF6B69002391
S214404870A41BAB600AE0234632466F6AE9694046AD
S214404880B8470028A4EB0004064404DD002CF2DC04
S2144048900020BDE8F081AB8943F04003AB814FF088
S2144048A0FF30BDE8F081D8F800401D2CF3D8194BF6
S2144048B0E340DB4313F00103EDD1B5F90C206B6008
S2144048C022F400632969AB81DA042960B9D5002C4B
S2144048D0B7D12865B5E7EA6B002A8CDCD8E7012318
S2144048E0E9694046A047431C024602D0AB89AC6A01
S2144048F08EE7D8F80030002BF8D01D2B01D0162BB1
S21440490002D1C8F80060C3E7AB8943F04003AB81EF
S214404910BDE8F0810100402038B50D46044608B198
S214404920836BBBB1B5F90C0088B16B6EDB0701D465
S214404930810517D520462946FFF74EFF6B6EDA07EE
S214404940044602D4AB899B0507D5204638BD0446AD
S214404950204638BD00F038F8E4E7A86D00F0F6FBD6
S214404960204638BDA86D00F0EFFBE3E7014900F0B4
S214404970AFBB00BFE159400010B50023044681811B
S214404980C281036043608360436603614361836121
S214404990194608225C30FEF71DFE07480749084ABC
S2144049A0084B2062E4616162A262E36204F158004F
S2144049B0BDE8104000F0C4BB2557400049574000B2
S2144049C085574000A557400010B50446124800F0F1
S2144049D0BBFBA26BD2B904F53B731048C4F8E8326F
S2144049E00321C4F8E022E063C4F8E41260680421BE
S2144049F0FFF7C2FF01220921A068FFF7BDFF022290
S214404A001221E068FFF7B8FF0123A3630248BDE820
S214404A10104000F09BBB00BF2C0C40206D4940006E
S214404A20014800F091BB00BF400C4020014800F018
S214404A308DBB00BF400C402038B50A4C0A4D641B65
S214404A40A4100AD004F18043013B05EB8305013CEA
S214404A5055F804399847002CF9D1BDE8384001F0A4
S214404A6051BB00BF14614000106140002DE9F04783
S214404A7082B080468946144600F054FB012836D062
S214404A804A4604F15C0301A9404600F0E7FE421C9A
S214404A90064625D0A8B39DF804E000250DF1040A8B
S214404AA009E023685A1C226083F800E00135B542CD
S214404AB027D215F80AE0A368013B002BA360F0DA82
S214404AC0A769BB4271462246404602DBBEF10A0F4A
S214404AD0E7D100F06BFE431CE8D102B0BDE8F0879A
S214404AE0A38943F04003A38102B0BDE8F08709F1F3
S214404AF0FF33FE2BC4D85FFA89FE06468DF804E0E5
S214404B00CBE7484602B0BDE8F08700BF30B5536EED
S214404B1013F0010FB2F90C30144683B005469AB232
S214404B2001D190051CD5900406D4626E43F4005320
S214404B3042F40052A381626628462246FFF796FF5B
S214404B40636EDA07054602D4A3899B0502D528463C
S214404B5003B030BDA06D00F0F9FA284603B030BD72
S214404B60A06D019100F0F0FAB4F90C3001999AB2B8
S214404B70D9E700BFF8B5244F0C460646FEF778FD49
S214404B80BB685D68C4F57E610F3125F00305294496
S214404B9021F47F6121F00F01A1F58054B4F5805FC8
S214404BA007DB00213046FEF76FFDBB682B4498427A
S214404BB004D03046FEF762FD0020F8BD6142304624
S214404BC0FEF762FD01300DD0104BBA6819682D1BF8
S214404BD045F001053046091B55601960FEF74EFD4D
S214404BE00120F8BD00213046FEF74EFDBA68831A14
S214404BF00F2BDEDD064C0549246843F00103001BFD
S214404C0053600860D5E700BF38044020900B402032
S214404C1040084020002944D02DE9F0410D4680460A
S214404C20FEF726FD55F8047C694927F00103A5F1F7
S214404C300804E2188E685068B24220F003005ED046
S214404C40FE0750600BD455F8087CE41B01F1080EB3
S214404C50A56875453B446DD0E768EF60BD601518A4
S214404C606D68ED073ED543F001026260E350B3F550
S214404C70007F17D2DB08581C9A104D6851F83070E8
S214404C80A7600123934001EBC0022B43083AE26041
S214404C904B6041F83040FC604046BDE8F041FEF7CE
S214404CA0EDBC70475A0A042A52D89A0902F13907CD
S214404CB0FF0002F13805C819CA59083890424FD04B
S214404CC0516821F003018B4232D292689042F7D16C
S214404CD0C368A060E3609C60C4604046BDE8F041A5
S214404CE0FEF7CCBC95683B4FBD42034440D0D068ED
S214404CF0E86043F0010285606260E350B7E7FF0773
S214404D00034407D455F8082CA41A1344A068E26854
S214404D10C2609060304A126843F00100934260607F
S214404D208C60B9D32D4B40461968FFF723FFB3E795
S214404D301046CDE711184968C90744D49168D2682F
S214404D40CA60034443F0010091606060E350A3E70B
S214404D50142A16D802F15C07FF0002F15B05AAE7A9
S214404D60AA1001234D6893402B434B600346B0E79F
S214404D7043F001024C610C61E560A5606260E3505F
S214404D808AE7542A06D81A0B02F16F07FF0002F191
S214404D906E0590E7B2F5AA7F06D8DA0B02F17807DF
S214404DA0FF0002F1770586E740F25450824206D86B
S214404DB09A0C02F17D07FF0002F17C057BE74FF479
S214404DC07E777E2577E743F001016160136063E7F5
S214404DD0380440204004402044084020C00B402077
S214404DE09368002B73D02DE9F04F8B8983B00C4627
S214404DF019070090164626D5226922B313F0020002
S214404E0035682CD04FF00009B04FC846B246B8457A
S214404E1043464A4628BF3B460098B8F1000F50D05C
S214404E20E169666AB047002858DDDAF808301B1A90
S214404E308144A8EB0008CAF80830002BE7D10020D0
S214404E4003B0BDE8F08F21460098FFF751FC0028DC
S214404E5040F03381A389356813F00200D2D113F0B5
S214404E60010945D14F46019637B39A05D4F80880D4
S214404E7040F183804745C346C0F0AB8013F4906F43
S214404E8040F0AC802068BA465A46494600F040FAA0
S214404E90A2682368A2EB08025B44A2602360019AE2
S214404EA09368A3EB0A03D144A7EB0A079360002B51
S214404EB0C5D0A389002FD8D1D5F800906F680835A3
S214404EC0D2E7D5F80090D5F8048008359FE7002053
S214404ED0704721460098FFF71FFD70B3B4F90C30B9
S214404EE043F040034FF0FF30A38103B0BDE8F08F9E
S214404EF0814633464E46A8469A464D464EB380B304
S214404F00206823696269B145CB4628BFB3469842BC
S214404F105F4604D9A36813449B4500F3A680934597
S214404F204BDB1346676AE16900982A46B847071E76
S214404F30D4DDB9EB0709CCD00120DAF80830DB1B0A
S214404F403D44F61BCAF80830002B3FF478AF002EDD
S214404F50D5D108F1080313E9600098460833002EBF
S214404F60F9D032460A21284600F082F9002800F09F
S214404F70A1800130A0EB0509C2E72068236998426A
S214404F8002D863699F425DD2B84528BFB8464246BC
S214404F90494600F0BDF9A3682268A3EB08034244E3
S214404FA0A36022600BB1C24679E721460098FFF71E
S214404FB0B3FC002892D1C24671E75A46294600F013
S214404FC0A7F9A2682368A2EB0B025B44A2602360A9
S214404FD0AFE72068B846BA46BB4655E762692068E0
S214404FE0216902EB4208A0EB010A08EBD8780AF1E7
S214404FF001004FEA680838444045424684BF804630
S21440500042465B0544D511460098FDF799FF834616
S214405010002855D052462169FEF742FAA38923F468
S214405020906343F08003A3810BEB0A00A8EB0A03CE
S214405030C4F810B0C4F814802060A360B846BA46DE
S214405040BB4621E76FF00041B94228BF39464A4681
S21440505091FBF3F10098666A03FB01F3E169B04700
S214405060B0F1000A3FF71BAF38E71A4629460193CE
S21440507000F04EF92268019B00981A4422602146AF
S214405080FFF74AFC019B00287FF428AF1F4650E7F5
S214405090009800F0A1F983460028C5D1009D2169FB
S2144050A02846FFF7B7FDB4F90C300C2223F08003F6
S2144050B02A6015E706F1010922E74FF0FF30BFE608
S2144050C0009A0C231360B4F90C3009E700FCFF7F0C
S2144050D02DE9F84310F538771FD0884606464FF03E
S2144050E000097D68BC68013D11D4A389012B05F1F8
S2144050F0FF3508D9B4F90E3001332146304602D088
S214405100C04749EA00096B1C04F16804EDD13F68CA
S214405110002FE6D14846BDE8F883B9464846BDE884
S214405120F88300BF044B054A1B685B6B002B08BF27
S214405130134693F8280170470C0040204C08402046
S214405140704700BF704700BF704700BF704700BF42
S21440515070B50C46B1F90E10002990B015461E46A3
S21440516014DB01AA00F09EFC00280FDB029A02F432
S2144051707042A2F50052B2FA82F252094FF48063AE
S2144051804FF4006032602B6010B070BDA2890023DF
S21440519012F08000336004D0402218462A6010B0D7
S2144051A070BD4FF480632B6010B070BD8A89920743
S2144051B00B4606D501F1430201211A601A61596176
S2144051C07047F0B583B001AB6A460C460646FFF71B
S2144051D0BFFF009905463046FDF7B2FEB4F90C30E5
S2144051E0D8B1019A154F0099F76343F08003A38125
S2144051F02060206161611AB92B43A38103B0F0BDE2
S2144052003046B4F90E1000F061FCA0B1A38923F03B
S214405210030343F001031BB2EEE79A05EED423F0F6
S214405220030304F1430243F002030121A3812260F9
S21440523022616161E2E7B4F90C30DDE76D49400078
S21440524082B049B15AB16BB113780B601278101C1A
S21440525018BF012002B0704701A9002AF3D11046BA
S21440526002B070476FF00100F4E700BF0000000096
S21440527001F0FF01102A2BDB10F0070F08D010F8C2
S214405280013B013A8B422DD010F0070F42B3F6D1C6
S214405290F0B441EA012141EA014122F007047FF0DF
S2144052A000070023F0E80256083C85EA010586EA36
S2144052B0010685FA47F5A3FA87F586FA47F6A5FA72
S2144052C087F68EB9EED1F0BC01F0FF0102F007027E
S2144052D032B110F8013B013A83EA010313B1F8D129
S2144052E00020704701387047002D06BF354603380A
S2144052F0073815F0010F07D1013015F4807F02BF43
S214405300013015F4C03F0130F0BC0138704700BF93
S2144053108842F0B50DD98B1898420AD28418002AD4
S21440532051D0224613F8014D02F8014D9942F9D169
S214405330F0BD0F2A48D941EA00039B0746D100F149
S214405340100401F11003154653F8106C44F8106C25
S21440535053F80C6C44F80C6C53F8086C44F8086C22
S214405360103D53F8046C44F8046C0F2D03F1100301
S21440537004F11004E8D8A2F1100323F00F0302F062
S2144053800F0E1033BEF1030F1944034421D91E1FDC
S2144053900D467446043C55F8047B46F8047F032CBF
S2144053A0F8D8AEF1040424F0030404342144234422
S2144053B002F0030262B1013B0A4411F8014B03F8C4
S2144053C0014F8A42F9D1F0BD0346F3E70346F2E7C0
S2144053D0F0BD7246EEE700BF002900F095802DE94B
S2144053E0F04F0D46164683B0804606F10B07FEF793
S2144053F03FF955F804EC162F2EF00304A5F10809E2
S2144054003CD810221746BE423DD8944243DAC44B9D
S214405410996809EB0400884200F0B480436823F0A2
S214405420010101444968C9074CD51EF0010F00F040
S2144054309B8031464046FDF783FD064600283AD01D
S21440544055F8043C23F001034B44A0F108029A426D
S21440545000F02181221F242A00F20781132A00F23D
S214405460DB8003462A461168196051685960926885
S2144054709A6029464046FFF7CDFB1CE027F0070719
S214405480002F3A46BFDA00260C233046C8F80030D4
S21440549003B0BDE8F08F2E46E31B0F2B1ED8D9F87D
S2144054A0043003F0010323434C44C9F804306368D6
S2144054B043F0010363604046FEF7E0F8304603B031
S2144054C0BDE8F08F23F00303E11891421FDBC36869
S2144054D082682E46D3600C469A60DDE7D9F80420F1
S2144054E009EB070102F001024C4443F00103174365
S2144054F0C9F804704B60636843F001030831636089
S2144055004046FFF787FBD6E71146FDF719BD1EF06C
S214405510010F8ED155F8081CA9EB010ADAF80410E1
S21440552021F003010B442344934225DBC268816883
S2144055305646CA609160DAF80C1056F8080F221FDB
S214405540242AC160886000F29480132A6FD92968A3
S214405550CAF808106968CAF80C101B2A00F2A28024
S21440556008350AF1100263E055F8083CA9EB030A37
S214405570DAF8041021F0030163189342FFF659AF9E
S2144055805646D8E7416821F0030BA34407F11000C4
S214405590834556DA1EF0010F7FF44BAF55F8081CD2
S2144055A0A9EB010ADAF8041021F003018B445845B0
S2144055B0E2DC5646DAF80C1056F8080F221F242A6A
S2144055C0C160886000F28F80132A40F28A80296882
S2144055D0CAF808106968CAF80C101B2A00F28A80BC
S2144055E008350AF110022968116069685160A96897
S2144055F091600AEB0701ABEB070242F001029960AB
S2144056004A60DAF8043003F001031F434046CAF804
S2144056100470FEF733F851E72B6803606B6843600D
S2144056201B2A2DD800F1080305F108021BE7324675
S2144056302968116069685160A96891601C46D14626
S2144056402AE709EB0701ABEB070B4BF00102996029
S2144056504A6055F8043C03F001031F43404645F8B2
S214405660047CFEF70BF82E4628E72946FFF750FE47
S214405670FFE6294630461C46D146FFF749FE0BE773
S214405680AB688360EB68C360242A17D000F1100330
S21440569005F11002E7E650F8043C23F003031C44EF
S2144056A02E46F9E6A968CAF81010E968CAF8141038
S2144056B0242A0CD010350AF11802B9E72B69036189
S2144056C06B69436105F1180200F11803CBE62A69BD
S2144056D0CAF818206A69CAF81C2018350AF1200250
S2144056E0A6E732467FE7294630460193FFF710FE8D
S2144056F0019B7EE7A968CAF81010E968CAF814103A
S214405700242A03D010350AF118026CE72A69CAF831
S21440571018206A69CAF81C2018350AF1200262E788
S2144057203804402010B50C46B1F90E1000F0F6F9DA
S214405730002803DB236D0344236510BDA38923F4AF
S2144057408053A38110BD00BF2DE9F0411646B1F944
S2144057500C201F46D3050C46054607D500220223DB
S214405760B1F90E1000F0C4F9B4F90C20B4F90E10DB
S21440577022F48052A2813B4632462846BDE8F0419C
S21440578000F0A4B810B50C46B1F90E1000F0B0F910
S214405790A389421C0EBF23F4805343F480532065F4
S2144057A0A38110BDB1F90E1000F008B9F8B50D464A
S2144057B01446064610B1836B002B4BD0B4F90C2030
S2144057C0A369A36091B2080739D52369002B36D068
S2144057D0EDB289042F4615D522686169D31A8B42EB
S2144057E01CDA0133A168501C0139A1602060157095
S2144057F062699A421AD0A389DB0701D50A2D15D0D3
S2144058003846F8BD616E42F4005221F40051A28140
S214405810226861666169D31A8B42E2DB21463046D4
S214405820FFF77AF840B922680123DBE72146304685
S214405830FFF772F80028E3D04FF0FF37E0E7214645
S2144058403046FEF755FF0028F6D1B4F90C20236900
S21440585091B2BDE7FFF7B8F8B0E700BFF0B506462F
S21440586085B01F4689B1104C104D2468646B002CDF
S21440587008BF2C46D4F8E040A047431C03D1002282
S2144058808A233A60336005B0F0BD0C460649074AA5
S2144058900968496B002908BF11462246D1F8E04006
S2144058A001A9A047E9E700BF0C0040204C08402073
S2144058B021B1FF2A04D80A70012070470846704775
